{
  "contractName": "Voting",
  "abi": [
    {
      "inputs": [],
      "stateMutability": "nonpayable",
      "type": "constructor"
    },
    {
      "inputs": [
        {
          "internalType": "uint256",
          "name": "",
          "type": "uint256"
        }
      ],
      "name": "candidateList",
      "outputs": [
        {
          "internalType": "string",
          "name": "",
          "type": "string"
        }
      ],
      "stateMutability": "view",
      "type": "function",
      "constant": true
    },
    {
      "inputs": [],
      "name": "owner",
      "outputs": [
        {
          "internalType": "address",
          "name": "",
          "type": "address"
        }
      ],
      "stateMutability": "view",
      "type": "function",
      "constant": true
    },
    {
      "inputs": [
        {
          "internalType": "string",
          "name": "",
          "type": "string"
        }
      ],
      "name": "votes",
      "outputs": [
        {
          "internalType": "uint256",
          "name": "",
          "type": "uint256"
        }
      ],
      "stateMutability": "view",
      "type": "function",
      "constant": true
    },
    {
      "inputs": [
        {
          "internalType": "string",
          "name": "candidate",
          "type": "string"
        }
      ],
      "name": "addCandidate",
      "outputs": [],
      "stateMutability": "nonpayable",
      "type": "function"
    },
    {
      "inputs": [],
      "name": "getCandidates",
      "outputs": [
        {
          "internalType": "string[]",
          "name": "",
          "type": "string[]"
        }
      ],
      "stateMutability": "view",
      "type": "function",
      "constant": true
    },
    {
      "inputs": [
        {
          "internalType": "string",
          "name": "candidate",
          "type": "string"
        }
      ],
      "name": "voteForCandidate",
      "outputs": [],
      "stateMutability": "nonpayable",
      "type": "function"
    },
    {
      "inputs": [
        {
          "internalType": "string",
          "name": "candidate",
          "type": "string"
        }
      ],
      "name": "getVotes",
      "outputs": [
        {
          "internalType": "uint256",
          "name": "",
          "type": "uint256"
        }
      ],
      "stateMutability": "view",
      "type": "function",
      "constant": true
    }
  ],
  "bytecode": "0x608060405234801561001057600080fd5b50336000806101000a81548173ffffffffffffffffffffffffffffffffffffffff021916908373ffffffffffffffffffffffffffffffffffffffff160217905550610b2a806100606000396000f3fe608060405234801561001057600080fd5b506004361061007d5760003560e01c80638da5cb5b1161005b5780638da5cb5b146100ec578063b13c744b1461010a578063b99ef1fa1461013a578063e89927ef1461016a5761007d565b806306a49fce14610082578063462e91ec146100a0578063805265e5146100bc575b600080fd5b61008a610186565b60405161009791906107f5565b60405180910390f35b6100ba60048036038101906100b591906105a9565b61025f565b005b6100d660048036038101906100d191906105a9565b61032c565b6040516100e39190610859565b60405180910390f35b6100f4610354565b60405161010191906107da565b60405180910390f35b610124600480360381019061011f91906105ea565b610378565b6040516101319190610817565b60405180910390f35b610154600480360381019061014f91906105a9565b610424565b6040516101619190610859565b60405180910390f35b610184600480360381019061017f91906105a9565b610452565b005b60606002805480602002602001604051908101604052809291908181526020016000905b828210156102565783829060005260206000200180546101c9906109c4565b80601f01602080910402602001604051908101604052809291908181526020018280546101f5906109c4565b80156102425780601f1061021757610100808354040283529160200191610242565b820191906000526020600020905b81548152906001019060200180831161022557829003601f168201915b5050505050815260200190600101906101aa565b50505050905090565b60008054906101000a900473ffffffffffffffffffffffffffffffffffffffff1673ffffffffffffffffffffffffffffffffffffffff163373ffffffffffffffffffffffffffffffffffffffff16146102ed576040517f08c379a00000000000000000000000000000000000000000000000000000000081526004016102e490610839565b60405180910390fd5b600281908060018154018082558091505060019003906000526020600020016000909190919091509080519060200190610328929190610489565b5050565b600060018260405161033e91906107c3565b9081526020016040518091039020549050919050565b60008054906101000a900473ffffffffffffffffffffffffffffffffffffffff1681565b6002818154811061038857600080fd5b9060005260206000200160009150905080546103a3906109c4565b80601f01602080910402602001604051908101604052809291908181526020018280546103cf906109c4565b801561041c5780601f106103f15761010080835404028352916020019161041c565b820191906000526020600020905b8154815290600101906020018083116103ff57829003601f168201915b505050505081565b6001818051602081018201805184825260208301602085012081835280955050505050506000915090505481565b60018160405161046291906107c3565b90815260200160405180910390206000815480929190610481906109f6565b919050555050565b828054610495906109c4565b90600052602060002090601f0160209004810192826104b757600085556104fe565b82601f106104d057805160ff19168380011785556104fe565b828001600101855582156104fe579182015b828111156104fd5782518255916020019190600101906104e2565b5b50905061050b919061050f565b5090565b5b80821115610528576000816000905550600101610510565b5090565b600061053f61053a846108a5565b610874565b90508281526020810184848401111561055757600080fd5b610562848285610982565b509392505050565b600082601f83011261057b57600080fd5b813561058b84826020860161052c565b91505092915050565b6000813590506105a381610add565b92915050565b6000602082840312156105bb57600080fd5b600082013567ffffffffffffffff8111156105d557600080fd5b6105e18482850161056a565b91505092915050565b6000602082840312156105fc57600080fd5b600061060a84828501610594565b91505092915050565b600061061f83836106ab565b905092915050565b61063081610946565b82525050565b6000610641826108e5565b61064b8185610908565b93508360208202850161065d856108d5565b8060005b85811015610699578484038952815161067a8582610613565b9450610685836108fb565b925060208a01995050600181019050610661565b50829750879550505050505092915050565b60006106b6826108f0565b6106c08185610919565b93506106d0818560208601610991565b6106d981610acc565b840191505092915050565b60006106ef826108f0565b6106f9818561092a565b9350610709818560208601610991565b61071281610acc565b840191505092915050565b6000610728826108f0565b610732818561093b565b9350610742818560208601610991565b80840191505092915050565b600061075b60268361092a565b91507f4f6e6c7920746865206f776e65722063616e20706572666f726d20746869732060008301527f616374696f6e00000000000000000000000000000000000000000000000000006020830152604082019050919050565b6107bd81610978565b82525050565b60006107cf828461071d565b915081905092915050565b60006020820190506107ef6000830184610627565b92915050565b6000602082019050818103600083015261080f8184610636565b905092915050565b6000602082019050818103600083015261083181846106e4565b905092915050565b600060208201905081810360008301526108528161074e565b9050919050565b600060208201905061086e60008301846107b4565b92915050565b6000604051905081810181811067ffffffffffffffff8211171561089b5761089a610a9d565b5b8060405250919050565b600067ffffffffffffffff8211156108c0576108bf610a9d565b5b601f19601f8301169050602081019050919050565b6000819050602082019050919050565b600081519050919050565b600081519050919050565b6000602082019050919050565b600082825260208201905092915050565b600082825260208201905092915050565b600082825260208201905092915050565b600081905092915050565b600061095182610958565b9050919050565b600073ffffffffffffffffffffffffffffffffffffffff82169050919050565b6000819050919050565b82818337600083830152505050565b60005b838110156109af578082015181840152602081019050610994565b838111156109be576000848401525b50505050565b600060028204905060018216806109dc57607f821691505b602082108114156109f0576109ef610a6e565b5b50919050565b6000610a0182610978565b91507fffffffffffffffffffffffffffffffffffffffffffffffffffffffffffffffff821415610a3457610a33610a3f565b5b600182019050919050565b7f4e487b7100000000000000000000000000000000000000000000000000000000600052601160045260246000fd5b7f4e487b7100000000000000000000000000000000000000000000000000000000600052602260045260246000fd5b7f4e487b7100000000000000000000000000000000000000000000000000000000600052604160045260246000fd5b6000601f19601f8301169050919050565b610ae681610978565b8114610af157600080fd5b5056fea264697066735822122042bbbc8a52d311b9928a53e9e61f673c916f58f05c63e05ab17a0f4f0731ad1164736f6c63430008000033",
  "immutableReferences": {},
  "source": "// SPDX-License-Identifier: MIT\npragma solidity ^0.8.0;\n\ncontract Voting {\n    address public owner;\n    mapping (string => uint) public votes;\n    string[] public candidateList;\n\n    constructor() {\n        owner = msg.sender; // Set the contract deployer as the owner\n    }\n\n    modifier onlyOwner() {\n        require(msg.sender == owner, \"Only the owner can perform this action\");\n        _;\n    }\n\n    function addCandidate(string memory candidate) public onlyOwner {\n        candidateList.push(candidate);\n    }\n\n    function getCandidates() public view returns (string[] memory) {\n        return candidateList;\n    }\n\n    function voteForCandidate(string memory candidate) public {\n        votes[candidate]++;\n    }\n\n    function getVotes(string memory candidate) public view returns (uint) {\n        return votes[candidate];\n    }\n}\n",
  "sourcePath": "/Users/admin/voting-contract/contracts/Voting.sol",
  "compiler": {
    "name": "solc",
    "version": "0.8.0+commit.c7dfd78e.Emscripten.clang"
  },
  "schemaVersion": "3.4.16",
  "updatedAt": "2024-05-30T03:23:56.536Z",
  "networkType": "ethereum",
  "devdoc": {
    "kind": "dev",
    "methods": {},
    "version": 1
  },
  "userdoc": {
    "kind": "user",
    "methods": {},
    "version": 1
  }
}